:100000000C9434000C943E000C943E000C943E0082
:100010000C943E000C943E000C943E000C943E0068
:100020000C943E000C943E000C943E000C94400056
:100030000C943E000C943E000C943E000C943E0048
:100040000C943E000C943E000C943E000C943E0038
:100050000C943E000C943E000C943E000C943E0028
:100060000C943E000C943E0011241FBECFEFD8E04C
:10007000DEBFCDBF0E944D000C9497000C94000091
:100080008F938FB78F939F9385B190E2892785B91E
:100090009F918F918FBF8F9118950F92CDB7DEB73B
:1000A00088E0898380E88093610089818093610082
:1000B0003E9A8DE390E090938900809388008DE0D4
:1000C0008093800080938100809180008E7F809358
:1000D0008000809180008C7F8093800080918100DF
:1000E000886080938100809181008160809381008D
:1000F0008091810084608093810080916F00826094
:1001000080936F00B19A789480916400807F80938F
:10011000640083B78C7F83BF83B7846083BF83B75A
:10012000807F83BF83B7816083BF8895FECFF894BB
:02013000FFCFFF
:00000001FF
